:020000040800F2
:100000008006002439030008450300084703000860
:10001000490300084B0300084D03000800000000DE
:100020000000000000000000000000004F03000876
:1000300051030008000000005303000855030008A6
:100040005703000857030008570300085703000828
:1000500057030008570300086D0400085703000801
:10006000570300085703000857030008FD03000862
:1000700057030008570300085703000857030008F8
:1000800057030008570300085703000857030008E8
:1000900057030008570300085703000857030008D8
:1000A00057030008570300085703000857030008C8
:1000B00057030008570300085703000857030008B8
:1000C00057030008570300085703000857030008A8
:1000D0005703000857030008570300085703000898
:1000E00057030008570300080000000057030008EA
:1000F0005703000857030008570300085703000878
:100100005703000857030008570300085703000867
:100110005703000857030008570300085703000857
:100120005703000857030008570300085703000847
:100130005703000857030008570300085703000837
:1001400000000000000000000000000000000000AF
:100150005703000857030008570300085703000817
:100160005703000857030008570300085703000807
:1001700057030008570300085703000857030008F7
:1001800057030008570300085703000857030008E7
:1001900057030008570300085703000857030008D7
:1001A00057030008570300085703000857030008C7
:1001B00057030008570300085703000857030008B7
:1001C00057030008570300085703000857030008A7
:1001D0005703000857030008570300085703000897
:1001E0005703000857030008570300085703000887
:1001F0005703000857030008570300085703000877
:100200005703000857030008570300085703000866
:100210005703000857030008570300085703000856
:1002200057030008570300085703000800000000A8
:100230005703000857030008000000005703000898
:100240005703000857030008570300085703000826
:100250005703000857030008570300085703000816
:100260005703000857030008570300085703000806
:100270005703000857030008570300080000000058
:100280005703000857030008570300080000000048
:10029000000000005703000800F002F800F03CF8EE
:1002A0000AA090E8000C82448344AAF10107DA45D1
:1002B00001D100F031F8AFF2090EBAE80F0013F0E7
:1002C000010F18BFFB1A43F0010318472405000073
:1002D00044050000103A24BF78C878C1FAD8520704
:1002E00024BF30C830C144BF04680C6070470000B0
:1002F0000023002400250026103A28BF78C1FBD82F
:10030000520728BF30C148BF0B6070471FB500F0CF
:1003100067FA1FBD10B510BD00F035F81146FFF7A4
:10032000F5FF00F0FFF900F053F803B4FFF7F2FF18
:1003300003BC00F05BF800000A4880470A48804789
:100340000A480047FEE7FEE7FEE7FEE7FEE7FEE7B6
:10035000FEE7FEE7FEE7FEE705480649064A074BCB
:1003600070470000D9040008ED0400089902000855
:1003700080000024800600248002002480020024E3
:10038000704770477047754600F02CF8AE46050080
:100390006946534620F00700854618B020B5FFF7A0
:1003A000DBFFBDE820404FF000064FF000074FF0A4
:1003B00000084FF0000B21F00701AC46ACE8C00983
:1003C000ACE8C009ACE8C009ACE8C0098D4670478C
:1003D00010B50446AFF300802046BDE81040FFF79B
:1003E000A4BF0000004870472000002401491820E5
:1003F000ABBEFEE726000200704700001748016808
:10040000C90605D5816841F01001816000F06CB823
:100410000168890605D5816841F02001816000F0FE
:100420005DB80168090705D5816841F00801816060
:1004300000F0D8B80168C90705D0816841F0010112
:10044000816000F04AB80168490705D5816841F02C
:100450000401816000F004B8704700000000024011
:100460000149012048707047000000244FF0B0425D
:10047000164808B5D2F8801021F00101C2F88010AA
:10048000016821F0010101600168C907FCD10F4931
:1004900010398B6843F03F038B600D490968416058
:1004A000016841F0010101600020009009480099B5
:1004B000491C00918142FAD300F0DCF8D2F88000A8
:1004C00040F00100C2F8800008BD000010000240AA
:1004D000EC070008C0C62D00704770470149012095
:1004E000087070470000002470470000334810B5C2
:1004F000016841F470010160314A106800F00F009A
:10050000072804D2106820F00F00C01D10602D498C
:10051000086840F0010008602A4B00201033186082
:100520000B68294C23400B60136803F00F03072B63
:1005300004D9136823F00F03DB1D1360214A18321E
:100540001060121D1060121D10601E4B1F4A2833D0
:100550001A601B1D1E4A1A601B1D1E4A1A601B1DB5
:1005600018601B1D1A601B1D18601B1D1A601A1DC8
:1005700010600A6822F480220A6012496031086023
:10058000154800686FF30F00B0F1005F03D2134805
:100590000121C0F808110B48D4300168C9040BD4FC
:1005A000016841F4805101600D4A43F2D2011160AB
:1005B000016821F48051016010BD000088ED00E069
:1005C00000200052004402587FEDF6EA00020202C9
:1005D0000000FF01800201010010005C008000515A
:1005E000004000520149012048707047000000247B
:1005F000002809DB012100F01F0291404009800022
:1006000000F1E020C0F8001170470000174A4FF0D9
:10061000B04130B41448164BD2F8E04044F0010425
:1006200042F8E04F046824F003040460C46824F036
:100630000304C460C46844F00104C460D1F88000BD
:1006400040F00100C1F88000106840F00200106026
:10065000986820F00F009860486840F001004860FA
:1006600030BC0620FFF7C4BF000002580044025807
:10067000000400584FF0B040D0F88810C90702D0ED
:100680000121C0F88810704715491648D1F8D820C4
:1006900042F00102C1F8D8204FEAF0422A2111604D
:1006A0001149C160114981601B214160016821F03D
:1006B000C0010160016841F040010160016821F062
:1006C00020010160016821F4C0410160016821F44A
:1006D000C0510160016841F4806101607047000011
:1006E000004402581000024002000024281001407B
:1006F0000B48016841F008010160016841F01001F8
:100700000160016841F004010160416941F080012C
:100710004161016841F0020101600B20FFF768BFF1
:1007200010000240FFF772FF00F006F8FFF7ACFF81
:10073000FFF7DEFFFEE7000026492748274AD1F8E9
:10074000F03043F01003C1F8F030D1F8E03043F05E
:100750000103C1F8E030036823F440230360036819
:1007600043F400230360436A23F0F0034362436AC7
:1007700043F070034362C36823F44023C3600368FB
:1007800023F440130360036843F400130360436AD7
:1007900023F470634362436A43F4E0634362C368D3
:1007A00023F44013C360C86920F4E060C861C869DD
:1007B00040F4A060C8618B20D060106840F0080051
:1007C0001060106840F001001060906840F08000F8
:1007D0009060704700440258000002580010014029
:1007E0004FF04070E1EE100A704700001B0000005F
:1007F000100800080000002420000000D4020008B7
:10080000300800082000002460060000F002000804
:10081000000048656C6C6F2066726F6D2053544DFC
:10082000333248373530564254360D0A0000000046
:040000050800029954
:00000001FF
